:100000000C942A000C9434000C9434000C943400AA
:100010000C9434000C9434000C9434000C94340090
:100020000C9434000C9434000C9434000C94340080
:100030000C9434000C9434000C9434000C94340070
:100040000C9434000C9434000C9434000C94340060
:100050000C94340011241FBECFE5D4E0DEBFCDBF29
:100060000E9436000C9449000C9400008C9A949ADB
:1000700081EE94E00197F1F700C0000094989FE3AF
:100080002DE083E0915020408040E1F700C0000067
:06009000EECFF894FFCF53
:00000001FF
