:107000000C942A380C943F380C943F380C943F3839
:107010000C943F380C943F380C943F380C943F3814
:107020000C943F380C943F380C943F380C943F3804
:107030000C943F380C943F380C943F380C943F38F4
:107040000C943F380C943F380C943F380C943F38E4
:107050000C943F3811241FBECFE5D4E0DEBFCDBF76
:1070600011E0A0E6B0E0E2E6F1E702C005900D9283
:10707000A036B107D9F70E948D380C94AF380C9424
:107080000038CF93DF934FB7F8949695982F8827C1
:107090009795879507B600FCFDCFE199FECF23E0D9
:1070A000FC0120935700E895EB01C058DF4FDB014E
:1070B00051E0BC016A1B7B0BEC9111962C9111974E
:1070C00030E0322F22272E0F311D07B600FCFDCFF6
:1070D000E199FECFFB01EA0FFB1F09015093570016
:1070E000E89511241296CA17DB0731F707B600FCA2
:1070F000FDCFE199FECF25E0FC0120935700E895F4
:1071000007B600FCFDCFE199FECF81E180935700E7
:10711000E8954FBFDF91CF910895889A83E021E0F1
:1071200092B3922792BB3FEF49E698E1315040403D
:107130009040E1F700C00000815091F760E670E0F8
:1071400080E090E00E94413860EE70E081E090E0E5
:107150000E9441380C94000080E090E00895F8947B
:02716000FFCF5F
:107162000C942A000C9434000C9434000C943400D7
:107172000C9434000C9434000C9434000C943400BD
:107182000C9434000C9434000C9434000C943400AD
:107192000C9434000C9434000C9434000C9434009D
:1071A2000C9434000C9434000C9434000C9434008D
:1071B2000C94340011241FBECFE5D8E0DEBFCDBF52
:1071C2000E9436000C9446000C9400008FEF8ABB9C
:1071D20041E028EC30E08BB384278BBB80E197E25F
:1071E200F9013197F1F70197D9F7F5CFF894FFCF6D
:1071F200FFFFFFFFFFFFFFFFFFFFFFFFFFFFFFFF9D
:10720200FFFFFFFFFFFFFFFFFFFFFFFFFFFFFFFF8C
:10721200FFFFFFFFFFFFFFFFFFFFFFFFFFFFFFFF7C
:10722200FFFFFFFFFFFFFFFFFFFFFFFFFFFFFFFF6C
:10723200FFFFFFFFFFFFFFFFFFFFFFFFFFFFFFFF5C
:10724200FFFFFFFFFFFFFFFFFFFFFFFFFFFFFFFF4C
:10725200FFFFFFFFFFFFFFFFFFFFFFFFFFFFFFFF3C
:040000030000700089
:00000001FF
